:1000000019C033C032C031C030C02FC02EC02DC087
:100010002CC02BC02AC029C028C027C026C025C09C
:1000200024C023C022C0CFC120C01FC01EC01DC01D
:100030001CC01BC011241FBECFEFCDBFDFE3DEBF4E
:100040001FE3A0E8BFE3E8E8F4E002C005900D92EA
:10005000A238B107D9F72FE3A2E8BFE301C01D9290
:10006000A73EB207E1F739D00DC2CACF02D1089539
:10007000089513D18FEF8093823F8093803F08953E
:100080008CE004D10895CF93FED0C82F06D12091E3
:10009000823F2F3F19F4C093803F1AC0211107C03F
:1000A0008091803F8F3F19F4C093833F11C08091AE
:1000B000803F90E0AC01440F551F840F951F820FC5
:1000C000911D8735910524F4FC01EC57F04CC08359
:1000D0002F5F2093823FCF910895C8DF80E490E0A6
:1000E000F0D083E490E0FAD089E390E004D183EC8F
:1000F00090E00ED188E390E018D188E390E086D1BB
:10010000E0E5F0E08081897F84608083FFCF789490
:10011000E0E5F0E0808181608083889580818E7F3A
:10012000808308958091230880932308E0E0FAE01B
:1001300010A211A281E0808340E00BC0F901EC57CE
:10014000F04C808180932408809123088823E4F771
:100150004F5F242F30E08091833F90E0BC01660F19
:10016000771F860F971F2817390744F31092000A4C
:1001700008958091833F882329F0F894D3DF10926B
:10018000833F78940895F5DFC2DF089580E00895F5
:10019000E0ECF1E088EA848788E083878BEB828754
:1001A00089E0818781E4808380E0089541E068ED03
:1001B00081E690E049D180E00895789480E0089548
:1001C00080E008C0E82FF0E0E05FFB4F908198608E
:1001D00090838F5F8830B0F3089544D10895D8DFBD
:1001E000089580B18F7780B9E7E1F4E08081877F5F
:1001F0008083E0E0F2E081818460818381B18F7B44
:1002000081B980B1806480B981818460818381B14A
:10021000877F81B980B1886080B981B18E7F81B9D3
:1002200080B1816080B916D1089581B18B7F81B989
:1002300080B1846080B9E2E1F4E08081877F8083CF
:1002400080818F7780838081887F808381B18D7F5B
:1002500081B980B1826080B9E1E1F4E08081877F7B
:10026000808380818F7780838081887F8083D3D0D3
:100270000895A6DF9BDFB1DFB2DFB3DF9EDFE8D0FA
:10028000D4DF84DF089580911D080895E0E1F8E04F
:100290008587828583608287089583E080931A082A
:1002A0000895E0E1F8E08385806C838782E08287AF
:1002B0000895E091DF3FF091E03F309709F0099514
:1002C00008958093DF3F9093E03F0895E091DD3FF4
:1002D000F091DE3F309709F0099508958093DD3F56
:1002E0009093DE3F0895E091E13FF091E23F309737
:1002F00009F0099508958093E13F9093E23F0895B6
:10030000E091DB3FF091DC3F309709F009950895CB
:100310008093DB3F9093DC3F0895E091E53FF091BF
:10032000E63F309709F0099508958093E53F909353
:10033000E63F0895E091E33FF091E43F309709F004
:100340000995089580911B0883FF02C0E6DF089598
:1003500080911B0882FF02C0EDDF089580911B0889
:1003600086FF09C080911B0880FF05C0BCDF81E0CB
:100370008093813F089580911B088823BCF480916D
:100380001B0881FF11C080911B0884FF04C080916D
:10039000813F882339F01092813F8BDF83E0809387
:1003A0001A0808957EDF089591DF089580911B0853
:1003B00086FF08C080911B0880FD04C0A1DF82E099
:1003C00080931A0808951F920F920FB60F9211246E
:1003D0002F933F934F935F936F937F938F939F934D
:1003E000AF93BF93EF93FF93ADDFFF91EF91BF9179
:1003F000AF919F918F917F916F915F914F913F91BD
:100400002F910F900FBE0F901F9018958093E33F90
:100410009093E43F0895E0E1F8E080E1848781EE85
:10042000818780E090E05ADF80E090E04ADF80E062
:1004300090E061DF80E090E06BDF80E090E075DFCE
:1004400080E090E0E3DF0895FC0164BF40830895FD
:1004500080E00895E0E2F8E083E2808384E0818335
:1004600080E00895E0E0FAE084E090E084A795A7BA
:1004700083E4818381E0828387E090E086A397A371
:0804800080E00895F894FFCF1D
:02048800FF0172
:00000001FF
